{
  "contractName": "EtherTransfer",
  "abi": [
    {
      "anonymous": false,
      "inputs": [
        {
          "indexed": true,
          "internalType": "address",
          "name": "from",
          "type": "address"
        },
        {
          "indexed": true,
          "internalType": "address",
          "name": "to",
          "type": "address"
        },
        {
          "indexed": false,
          "internalType": "uint256",
          "name": "amount",
          "type": "uint256"
        }
      ],
      "name": "Transfer",
      "type": "event"
    },
    {
      "stateMutability": "payable",
      "type": "receive",
      "payable": true
    },
    {
      "inputs": [
        {
          "internalType": "address payable",
          "name": "_to",
          "type": "address"
        }
      ],
      "name": "transfer",
      "outputs": [],
      "stateMutability": "payable",
      "type": "function",
      "payable": true
    },
    {
      "inputs": [],
      "name": "getBalance",
      "outputs": [
        {
          "internalType": "uint256",
          "name": "",
          "type": "uint256"
        }
      ],
      "stateMutability": "view",
      "type": "function",
      "constant": true
    }
  ],
  "bytecode": "0x608060405234801561001057600080fd5b506103d2806100206000396000f3fe60806040526004361061002d5760003560e01c806312065fe0146100395780631a6952301461006457610034565b3661003457005b600080fd5b34801561004557600080fd5b5061004e610080565b60405161005b919061031d565b60405180910390f35b61007e600480360381019061007991906101ff565b610088565b005b600047905090565b600034116100cb576040517f08c379a00000000000000000000000000000000000000000000000000000000081526004016100c2906102fd565b60405180910390fd5b600073ffffffffffffffffffffffffffffffffffffffff168173ffffffffffffffffffffffffffffffffffffffff16141561013b576040517f08c379a0000000000000000000000000000000000000000000000000000000008152600401610132906102dd565b60405180910390fd5b8073ffffffffffffffffffffffffffffffffffffffff166108fc349081150290604051600060405180830381858888f19350505050158015610181573d6000803e3d6000fd5b508073ffffffffffffffffffffffffffffffffffffffff163373ffffffffffffffffffffffffffffffffffffffff167fddf252ad1be2c89b69c2b068fc378daa952ba7f163c4a11628f55a4df523b3ef346040516101df919061031d565b60405180910390a350565b6000813590506101f981610385565b92915050565b60006020828403121561021157600080fd5b600061021f848285016101ea565b91505092915050565b6000610235601f83610338565b91507f416472657373652064652064657374696e6174696f6e20696e76616c696465006000830152602082019050919050565b6000610275603283610338565b91507f4c65206d6f6e74616e74206475207472616e736665727420646f69742065747260008301527f65207375706572696575722061207a65726f00000000000000000000000000006020830152604082019050919050565b6102d78161037b565b82525050565b600060208201905081810360008301526102f681610228565b9050919050565b6000602082019050818103600083015261031681610268565b9050919050565b600060208201905061033260008301846102ce565b92915050565b600082825260208201905092915050565b60006103548261035b565b9050919050565b600073ffffffffffffffffffffffffffffffffffffffff82169050919050565b6000819050919050565b61038e81610349565b811461039957600080fd5b5056fea26469706673582212209b5e8b86ade823d1af0f1662e1e5bcf30919dc75568386092ffe99c695f3536964736f6c63430008000033",
  "immutableReferences": {},
  "source": "// SPDX-License-Identifier: MIT\r\npragma solidity ^0.8.0;\r\n\r\ncontract EtherTransfer {\r\n    event Transfer(address indexed from, address indexed to, uint256 amount);\r\n\r\n    receive() external payable {}\r\n\r\n    function transfer(address payable _to) public payable {\r\n        require(msg.value > 0, \"Le montant du transfert doit etre superieur a zero\");\r\n        require(_to != address(0), \"Adresse de destination invalide\");\r\n\r\n        _to.transfer(msg.value);\r\n\r\n        emit Transfer(msg.sender, _to, msg.value);\r\n    }\r\n\r\n    function getBalance() public view returns (uint256) {\r\n        return address(this).balance;\r\n    }\r\n}",
  "sourcePath": "C:\\Users\\HP\\Documents\\deltacoin-project\\contracts\\EtherTransfer.sol",
  "compiler": {
    "name": "solc",
    "version": "0.8.0+commit.c7dfd78e.Emscripten.clang"
  },
  "schemaVersion": "3.4.16",
  "updatedAt": "2024-09-29T02:17:09.472Z",
  "networkType": "ethereum",
  "devdoc": {
    "kind": "dev",
    "methods": {},
    "version": 1
  },
  "userdoc": {
    "kind": "user",
    "methods": {},
    "version": 1
  }
}